:0300000002091BD7
:0C091B00787FE4F6D8FD75814A0206766C
:10089A00696E7075742020782C7920616E64207AD4
:1008AA003A0A0025632C25632C2563000A006D6132
:1008BA007820746F206D696E2069733A25632C2540
:0608CA00632C25630A0007
:10067600758920758DF3D28E7BFF7A08799A1200E0
:100686006575340075350075362275370075380086
:10069600753923753A00753B00753C247BFF7A0853
:1006A60079AD1203E17BFF7A0879B61200657528E9
:1006B60000752900752A22752B00752C00752D23CF
:1006C600752E00752F00753024AB2BAA2CA92D1280
:1006D6000788FFAB28AA29A92A120788C39F5018A2
:1006E6008B258A268927852B28852C29852D2A85E1
:1006F600252B85262C85272DAB2EAA2FA930120750
:1007060088FFAB2BAA2CA92D120788C39F50188BE4
:10071600258A268927852E2B852F2C85302D852504
:100726002E85262F852730AB2BAA2CA92D120788BC
:10073600FFAB28AA29A92A120788C39F50188B2520
:100746008A268927852B28852C29852D2A85252BE0
:1007560085262C85272DAB28AA29A92A120788F5D4
:1007660034AB2BAA2CA92D120788F535AB2EAA2F50
:10077600A930120788F5367BFF7A0879B81200652A
:0207860080FEF3
:10078800BB010689828A83E0225002E722BBFE026F
:09079800E32289828A83E49322A2
:10000300E5402434F8E6054022783130070278349D
:10001300E475F0011208300207882000EB7F2ED22E
:10002300008018EF540F2490D43440D4FF30040BD5
:10003300EF24BFB41A0050032461FFE541600215A9
:10004300410544E5447002054330070D7831E475FA
:10005300F001120830EF0207CE0208D07403D20772
:100063008003E4C207F5408B318A328933E4F541DA
:10007300F543F544E54160077F2012003E80F575A6
:1000830042FFC201C200C202C203C205C206C208C5
:1000930012000CFF700D3007057F0012004FAF44B4
:1000A300AE4322B4255FC2D5C20412000CFF24D094
:1000B300B40A00501A75F00A784130D50508B6FF26
:1000C3000106C6A426F620D5047002D20380D924E3
:1000D300CFB41A00EF5004C2E5D20402024FD2019A
:1000E30080C6D20080C0D20280BCD2D580BAD205ED
:1000F30080B47F2012003E2002077401B541004006
:10010300F1120003FF12003E020077D208D20680EC
:1001130095120003FB120003FA120003F94A4B7015
:100123000679207A037BFF20022EE541602A7E00B8
:100133008E827583001207A160060EEE654270F091
:10014300C2D5EBC0E0EAC0E0E9C0E0EE120296D00F
:10015300E0F9D0E0FAD0E0FB120788FF60AAEBC019
:10016300E0EAC0E0E9C0E012003ED0E02401F9D0AB
:10017300E03400FAD0E0FBE5420460DCD542D980EC
:10018300877BFF7A027992D202809C791080027970
:1001930008C206C2088008D2D5790A8004790AC247
:1001A300D5E542047002F542E4FAFDFEFF120003B6
:1001B300FC7B08200113120003FD7B1030000A12A0
:1001C3000003FE120003FF7B20EC3382D592D5504F
:1001D30013C3E43000069FFFE49EFEE42001039D69
:1001E300FDE49CFCE4CBF8C201EC700CCFCECDCC8B
:1001F300E824F8F870F38017C3EF33FFEE33FEED16
:1002030033FDEC33FCEB33FB994002FB0FD8E9EBF6
:10021300300105F8D0E0C448B201C0E00AEC4D4E0D
:100223004F78207B0070C2EAB5420040BCC0E012A8
:100233000298D0F0D0E0200104C4C0E0C4B201C0F1
:10024300F0120027D0F0D5F0EB020077120850012E
:100253001453018E5800E54C00E14201924F019A7C
:0F02630044019A4900FA4301A0550184460184E1
:100272004501844703405000E92D00ED2E01102B6B
:1002820000F123010E2003292A00A94800000108D9
:100292003F3F3F00790AA2D5200314300509B91067
:1002A200020404B9080104A2D52006025001042068
:1002B20002689202B541005034C0E07F2030031939
:1002C2007F30A20272067205500F1202EFC202C202
:1002D20006C205C2087F30800F300503E9C0E01274
:1002E200003E300503D0E0F9D0E0B541CC3005172F
:1002F2007F30B9100C12003E7F583004077F78809F
:1003020003B9080312003E3002057F2D02003E7F32
:10031200202008F87F2B2006F322920280CF286E3D
:10032200756C6C2900D2011200033001F8C2017809
:100332004130D50108F60200A92D50434958120058
:10034200032403B405004001E490033B9312002F01
:0D035200743A12002FD20375410402018E8F
:10035F00E54630030104F823282434F8227831309D
:10036F0003027834E475F00112083002078860EC5C
:10037F00C54A7002154914C54A200304FF0209310A
:10038F00783174FFF5F0020840FF0208F7E5476087
:10039F0006D547037F002220030F12090AEF6008DA
:1003AF00054AE54A700205492278311208271207DB
:1003BF0088FF60E97831E475F00112083080DE12B1
:1003CF0003A6EFC0E0120398D0E040F380A0D20361
:1003DF008002C2038B318A328933E4F548F546F542
:1003EF0049F54A754700C202C200C201C204120396
:1003FF006CFF7005AF487E0022B4253012036CFFEE
:10040F0024D0B40A00500C75F00AC547A42547F54F
:10041F004780E924CFB41A00EF5002C2E50206422A
:10042F00D20180D8D20080D4D20480D0EF120398AA
:10043F0050081203CEEF600E80A9EFC0E01203A6A2
:10044F00D0E06F609EEF607412037D80A71203A649
:10045F00EF6069E5477007054780031203A6EF6059
:10046F001420040E12035FE475F001120830EF122E
:10047F0007CED547E62004040546054880BA120387
:10048F009CEFC0E0120398D0E0500412037DE4FF0C
:10049F0020040E12035FE475F001120830EF12070B
:1004AF00CEEF70DA20040405460548808BE54760DF
:1004BF000205471203CE12039CEF70C6300304E40B
:1004CF0012037DE54860030204037EFF7FFF2220B5
:1004DF00041174FFFCFDFEFF12035F1208271208C0
:1004EF000D05460203F2D0E080D27900800A791020
:1004FF00800679088002790AD205E5476002054730
:10050F00E9C0E01203CEEF60DD1203A6BF2D04D2C7
:10051F00028003BF2B091203CEEF60CA12039CD0D7
:10052F00E0B40A028033B40802802EBF3027700275
:10053F007408C205C0E012039CD0E0BF78028003AC
:10054F00BF58160547D547028007D54704D2058007
:10055F000B741080197002740ABF000AEFF8E4FCE4
:10056F00FDFEFF0205F5C0E0EF12037DD0E0F9E4D8
:10057F00FCFDFEFFE9C0E0ECC0E0EDC0E0EEC0E046
:10058F00EFC0E012039CEFF8D0E0FFD0E0FED0E028
:10059F00FDD0E0FCD0F0E8604DB461004007B47BC3
:1005AF00005002C2E524D0503DFA24F6500724F93A
:1005BF005034240AFAEAB5F000502BCFA9F0A42F3B
:1005CF00FF92D5E9C5F0CEA4A2D53EFE92D5E9C5DE
:1005DF00F0CDA4A2D53DFD92D5E9C5F0CCA4A2D50E
:0B05EF003CFCC205808EE8C0E0200448
:1005FA002A20050805483002031207FF12035F127A
:10060A000827054620000B20010DEE8FF01207E0A7
:10061A00800912080D8004EF1207CED0E012037D84
:10062A000203F220041012035F1208270546E54967
:10063A00854AF01207E080E812085004BC5304FD12
:10064A005804334C042F42040B4805014F05054456
:10065A00045C4304F94905055504DE4604DE4504F5
:0C066A00DE4704372A062D4E0000043B3A
:1007A100BB010CE58229F582E5833AF583E022500D
:1007B10006E92582F8E622BBFE06E92582F8E22257
:0D07C100E58229F582E5833AF583E4932271
:1007CE00BB010689828A83F0225002F722BBFE010A
:0207DE00F32204
:1007E000BB010A89828A83F0E5F0A3F0225006F764
:0F07F00009A7F01922BBFE06F3E5F009F3192261
:0E07FF00C3E49FFFE49EFEE49DFDE49CFC220B
:10080D00BB010789828A830208825005E9F8020834
:0A081D0076BBFE05E9F802088E2202
:09082700E6FB08E6FA08E6F922F6
:10083000FAE6FB0808E6F925F0F618E6CA3AF622C9
:10084000FAE6FB0808E625F0F9F618E63AFAF62289
:10085000D083D082F8E4937012740193700DA3A337
:1008600093F8740193F5828883E47374029368604B
:06087000EFA3A3A380DF4B
:1008D000EFB40A07740D1208DB740A309811A89956
:1008E000B8130CC2983098FDA899C298B811F63088
:0708F00099FDC299F5992260
:10090A0010090B120927BF0D027F0A0208D0AF088F
:01091A0022BA
:050931008F08D209222D
:1008F700EFC394094005EF940E4003BF2003D38054
:0309070001C32207
:0C087600ECF608EDF608EEF608EFF622AE
:0C088200ECF0A3EDF0A3EEF0A3EFF022E9
:0C088E00ECF208EDF208EEF208EFF222A6
:0A0927003098FDAF99C2987E0022BF
:00000001FF
