:030000000207E50F
:0C07E500787FE4F6D8FD75811F02000348
:1007330020323031352D30382D3036205448550095
:100743002020202032333A35393A3539004D4F4E87
:1007530000545545005745440054485500465249F6
:09076300005341540053554E00AF
:0A076C00EB93FF1207D47F057E0017
:10077600D3EF9400EE940040147D6E7C00ED1D7066
:0D078600011CED4C70F7EF1F70E61E80E3C4
:010793002243
:0907B700AD0D7F0A1207987FCAFC
:1007C000C2B5C2B48F80120772D2B4120772C2B41B
:0107D0002206
:0307D1002430FFD2
:1007D400D2B5C2B48F80120772D2B4120772C2B4F7
:0107E40022F2
:10068800C2A6C2A7C2B4750F077510DF7514087526
:100698001206750804E4750C04F50BF50AF50975DE
:1006A800113B750D3B7513177F381207C07F0C126D
:1006B80007C07F061207C07F011207C07F8012079C
:1006C800C0E4FB90073312076C0BBB0FF67FC01218
:1006D80007C0E4FB90074312076C0BBB0CF6758947
:0D06E80001758C3C758AB0D2AFD2A9D28CBE
:0106F50022E2
:04079400AD117F071D
:10079800ED75F00A84FBED75F00A84AAF0EF24C029
:0F07A800FF1207C0EB1207D1EA2430FF0207D47B
:0906F600E514FD3395E0FC7F06DC
:0606FF008F1BAB05AA04ED
:100705007C007D0AAF03AE021203F28F1CAE02AF6E
:10071500037C007D0A1203F2AB05E51B2480FF1262
:0E07250007C0E51C1207D1EB2430FF0207D4F9
:0605F800AD10AC0F7F0105
:0605FE008F1BAB05AA04EF
:100604007C037DE8AF03AE021203F28E1E8F1F7CC3
:10061400037DE8AF03AE021203F27E007F64CFCD08
:10062400CFCECCCE1203F28F1C7C037DE8AF03AE99
:10063400021203F27E007F64CFCDCFCECCCE120364
:10064400F27E007F0ACFCDCFCECCCE1203F28F1D27
:10065400AE02AF037C007D0A1203F2AB05E51B2456
:1006640080FF1207C0E51F2430FF1207D4E51C24C5
:1006740030FF1207D4E51D2430FF1207D4EB2430D9
:04068400FF0207D496
:04055C00AD087F0C5B
:02056000AA05EA
:10056200EF2480FF1207C0EA14B40700400302051B
:10057200F790058175F003A4C58325F0C583730246
:1005820005960205A40205B20205C00205CE0205C7
:10059200DC0205EAE4FBEB90075012076D0BBB038C
:1005A200F522E4FBEB90075412076D0BBB03F52217
:1005B200E4FBEB90075812076D0BBB03F522E4FB3B
:1005C200EB90075C12076D0BBB03F522E4FBEB908B
:1005D200076012076D0BBB03F522E4FBEB90076487
:1005E20012076D0BBB03F522E4FBEB9007681207C1
:0505F2006D0BBB03F5D9
:0105F70022E1
:10000E00C2B720B05D12077220B016051530B0FDD4
:10001E00E515B4010CC28C7FCA1207C07F0F120700
:10002E00C0E515B402057FC71207C0E515B4030578
:10003E007FC41207C0E515B404057F891207C0E519
:10004E0015B405057F861207C0E515B406057F8138
:10005E001207C0E515B4070AE4F5157F0C1207C0A8
:10006E00D28CE515700302026030B10302016912F1
:10007E00077230B10302016930B1FDE515B4010D0F
:10008E00050DE50DB43C03E4F50D1207B7E515B407
:10009E0002120511E511B43C03E4F5111207947F29
:1000AE00C71207C0E515B403160513E513B41803FC
:1000BE00E4F513AD137F041207987FC41207C0E551
:1000CE00156404705D0512E512B42003751201E586
:1000DE0012FD3395E0FC7F091206FF0508E50C249E
:1000EE0001F50CE4350BF50BE4350AF50AE4350998
:1000FE00F509E47B07FAF9F8AF0CAE0BAD0AAC09C3
:10010E001204B9AC00AD01AE02AF03E47B01FAF903
:10011E00F8C312054B700375080112055C7F891236
:10012E0007C0E515B405120514E514B40D037514D6
:10013E00011206F67F861207C0E515B4061D0510DE
:10014E00E5107002050FB4100AE50FB42705E4F5AB
:10015E000FF5101205F87F811207C030B2030202AC
:10016E006012077230B20302026030B2FDE515B4C0
:10017E00010D150DE50DB4FF03750D3B1207B7E527
:10018E0015B402121511E511B4FF0375113B1207D8
:10019E00947FC71207C0E515B403161513E513B403
:1001AE00FF03751317AD137F041207987FC4120750
:1001BE00C0E51564047063D5120375121FE512FDB8
:1001CE003395E0FC7F091206FF1508E50C24FFF5B8
:1001DE000CE50B34FFF50BE50A34FFF50AE509349F
:1001EE00FFF509E5087003750807E47B07FAF9F8CF
:1001FE00AF0CAE0BAD0AAC091204B9AC00AD01AE3A
:10020E0002AF03E47B01FAF9F8C312054B700375D4
:10021E00080112055C7F891207C0E515B4050ED5DD
:10022E00140375140C1206F67F861207C0E515B47A
:10023E000620E51015107002150FE510B4FF0BE542
:10024E000FB4FF06750F2775100F1205F87F811278
:03025E0007C022B4
:0800030012068812000E80FBBA
:03000B000202618D
:10026100C0E0C0F0C083C082C0D075D000C000C063
:1002710001C002C003C004C005C006C007758C3CA4
:10028100758AB0050EE50E641260030203D7F50E00
:10029100050DE50D643C60030203D0F50D0511E584
:1002A10011643C60030203CDF5110513E5136418D5
:1002B10060030203C6F5130512E50C2401F50CE4F5
:1002C100350BF50BE4350AF50AE43509F50905089E
:1002D100E47B07FAF9F8AF0CAE0BAD0AAC091204D6
:1002E100B9AC00AD01AE02AF03E47B01FAF9F8C38A
:1002F10012054B7003750801E51424FC605824FEB7
:10030100606024FD606824FE607024097079AE0F7E
:10031100AF107C017D90120447ED4C601EAE0FAF13
:10032100107C007D64120447ED4C601EAE0FAF10CF
:100331007C007D04120447ED4C700FE512B41E05DC
:1003410075120105141206F6803AE512B41D057501
:1003510012010514802EE512B41F05751201051452
:100361008022E512B41F0575120105148016E512ED
:10037100B41F057512010514800AE512B41F057535
:10038100120105141206F6E5126420702975120196
:100391000514E514B40D1C7514010510E510700267
:1003A100050FB4100BE50FB42706750F007510008B
:1003B1001205F81206F612055CE512FD3395E0FC14
:1003C1007F091206FFAD137F04120798120794AD3F
:1003D1000D7F0A120798D007D006D005D004D003AC
:1003E100D002D001D000D0D0D082D083D0F0D0E0E4
:0103F10032D9
:1003F200BC000BBE0029EF8DF084FFADF022E4CCEF
:10040200F875F008EF2FFFEE33FEEC33FCEE9DECB7
:10041200984005FCEE9DFE0FD5F0E9E4CEFD22EDFD
:10042200F8F5F0EE8420D21CFEADF075F008EF2F47
:10043200FFED33FD4007985006D5F0F222C398FD38
:050442000FD5F0EA22D5
:10044700C2D5EC30E709B2D5E4C39DFDE49CFCEED0
:1004570030E715B2D5E4C39FFFE49EFE1203F2C353
:10046700E49DFDE49CFC80031203F230D507C3E44E
:060477009FFFE49EFE223F
:10047D0075F008758200EF2FFFEE33FECD33CDCC36
:10048D0033CCC58233C5829BED9AEC99E5829840B9
:10049D000CF582EE9BFEED9AFDEC99FC0FD5F0D696
:1004AD00E4CEFBE4CDFAE4CCF9A88222B800C1B9C0
:1004BD000059BA002DEC8BF084CFCECDFCE5F0CBFE
:1004CD00F97818EF2FFFEE33FEED33FDEC33FCEB37
:1004DD0033FB10D703994004EB99FB0FD8E5E4F9F2
:1004ED00FA227818EF2FFFEE33FEED33FDEC33FCDF
:1004FD00C933C910D7059BE99A4007EC9BFCE99AD3
:10050D00F90FD8E0E4C9FAE4CCFB2275F010EF2F17
:10051D00FFEE33FEED33FDCC33CCC833C810D70717
:10052D009BEC9AE899400AED9BFDEC9AFCE899F852
:0E053D000FD5F0DAE4CDFBE4CCFAE4C8F922E5
:10054B00EB9FF5F0EA9E42F0E99D42F0E89C45F006
:01055B00227D
:00000001FF
