:04009A007F2C7E0138
:10009E00D3EF9400EE940040147D6E7C00ED1D7045
:0D00AE00011CED4C70F7EF1F70E61E80E3A3
:0100BB002222
:10000300E4FA75905512009A7590AA12009A0ABAEA
:1000130003F0E4FA79FEE4FB899012009A7801AFC9
:1000230001EF08800123D8FDF90BBB08EB0ABA03E3
:10003300E37590FF79FE7B7FE4FAEBF4FFE9F44F7D
:10004300F4F59012009A7801AF01EF08800123D8EC
:10005300FDF97801AF03EF08800103D8FDFB0ABA6D
:1000630018D87590FFE4FA7590E712009A7590DB43
:1000730012009A7590BD12009A75907E12009A0A2A
:10008300BA03E47590FFE4FA6390FF12009A0ABA88
:0700930006F67590FF80FEE8
:030000000200BC3F
:0C00BC00787FE4F6D8FD75810702000390
:00000001FF
